:020000040800F2
:1000000000A000206D360108C3D60008ED1A0108D3
:10001000C1D60008BFD60008BDD600080000000009
:10002000000000000000000000000000BBD6000837
:10003000B9D6000800000000B7D60008D9CA0008E9
:10004000D5360108D5360108D5360108D536010860
:10005000D5360108D5360108D5360108D536010850
:10006000D5360108D5360108D5360108D536010840
:10007000A5C7000895C700087B4E0008D5360108C3
:1000800085C7000875C70008D5360108D5360108B0
:10009000E5D70008D5360108D5360108E9CA0008B9
:1000A000D3A30008FDA30008D53601080DA400085D
:1000B000F1A30008E1A30008D5360108D5360108F0
:1000C000D5360108D5360108D5360108D5360108E0
:1000D000D5360108BDA50008B1A50008A5A50008F2
:1000E000EFCA0008D5360108751E0108D53601088B
:1000F000D5360108D5360108D5360108D5360108B0
:10010000000000000000000000000000D5360108DB
:10011000D5360108D5360108D5360108D53601088F
:10012000D5360108D5360108D5360108D53601087F
:10013000D5360108D5360108000000000000000097
:10014000D5360108D5360108D53601080000000073
:10015000000000000000000000000000000000009F
:100160000000000000000000D5360108D536010867
:10017000D53601080000000000000000000000006B
:0801800000000000D536010863
:100188002DE9F04F2DED028BA34E97B034780096F1
:10019800002C00F0EA80A14B1868002801F0B9870C
:1001A8000CF0BCFA9E4C20680EF0C8FF002801F045
:1001B800B08720689B4C0EF0BEFF092801D03F286D
:1001C8004BD14FF000092768974E4D462FB19748FD
:1001D80031683A4618F02CF910B9B14605B93546D8
:1001E800934B10369E42F1D3D5B12E68D9F80080D2
:1001F800236816F803E018F80300704510D15A1C5C
:100208008A4948B92D2B07D8864E4FF0200E01F8A1
:1002180003E03260885403E001F803E02260E7E776
:1002280023680BB14D450FD082480BF02FFD4D458B
:1002380007D855F8100B0BF029FD09200BF0C2FB6D
:10024800F5E70CF077FA002723689F42AAD2774B8C
:10025800D85D0BF0B7FB0137F6E72368002B41F0B8
:10026800C286042841F0148770480EF075F901F031
:1002780050BFDFF8E8A1DAF800000EF05FFF0028B1
:100288005DD0DAF800000EF056FFDBF8003093F886
:1002980048100646002940F08480242840F0E28077
:1002A800012283F84820DBF8003093F84820062A1A
:1002B800DFD193F84900522800F0B58700F2A781F2
:1002C800342800F0108500F25281242800F073864B
:1002D80000F21F81032800F0768240F2F980052899
:1002E80040F00B811A200BF00BFB4FF00009524B2A
:1002F80013F8090009F101090BF0B9FAB9F10B0F6C
:10030800F5D14FF000094D4B13F8090009F1010927
:100318000BF0ADFAB9F1080FF5D14FF00009484BD1
:1003280013F8090009F101090BF0A1FAB9F1070F57
:10033800F5D10BF0ADFA2B68002283F84820D8F8E5
:1003480000000CF0EBF93F4B93F87D304BB1385976
:100358000CF05DFA0EF072FF06F0C0FD3A4B3B4A16
:10036800DA604C34982C01F0D486394FE359E219FD
:10037800002BF6D0DFF8E490364DC9F8003006932C
:1003880000238DF81D30DFF8D8802A601423324A04
:100398008DF81C306B440592C8F80030AB460192CA
:1003A80067E7012904D14D2814BF0022022278E70B
:1003B800022904D13C2814BF0022032271E7032933
:1003C8000CD140284FF0000102D983F848106AE7A1
:1003D80058711971D9719871042262E7042907D1FB
:1003E800997983F8490080EA01029A71052258E751
:1003F80005297FF458AF587919798842987906D930
:1004080070409871481C18710B441E724BE7B0423B
:100418000CBF0622002244E78D2F0020A81D0020D3
:10042800781F0020CC1F002084A101089C1F0020F9
:1004380064A30108FCA7010864A8010870A80108C2
:1004480079A801083809002000ED00E00400FA0549
:10045800682A0020981D002051F10008A01D0020E6
:100468009C1D0020DD490B7803F0040303F0FF0E08
:10047800002B7FF418AF232EDAF800001BD1009A66
:10048800029101231370D64B019A1860D54B18605E
:10049800986010201873D4485A6083F80DE004332C
:1004A8000360D2480BF0F2FB0CF044F902990B7888
:1004B80043F002030B70CE4B1B681B78B34201BF9D
:1004C800CC4BCD4A1A60CD4B04BFCD4ADA60EAE680
:1004D800012800F06C81022840F02B8704200BF0E3
:1004E8000FFA42200BF0C3F954200BF0C0F9462054
:1004F8000BF0BDF94C2000F001BFC0F08D8122281F
:1005080040F01787BF4E50200BF0FAF906F1500A59
:10051800CEE32C2800F07D8518D8282800F06085C7
:100528002A2800F07085262840F00387B54E06205B
:100538000BF0E6F9B6F8CC010BF0E5F9B6F8D00106
:100548000BF0E1F9B6F8D40100F084BE302800F0D1
:100558001B86322800F0B0852E2840F0EA86A94E86
:1005680040200BF0CDF906F1400A00F0FCBD42280E
:1005780000F0BB8520D83A2800F05F820BD83628D7
:1005880000F0D485382840F0D48604200BF0B8F960
:100598009C4E00F016BD3D2800F08182402800F0F6
:1005A80092853B2840F0C58601200BF0A9F9964BAF
:1005B8001B68187800F0A2BE4B2800F049850FD8B8
:1005C800462800F00786492800F07582452840F043
:1005D800B08613200BF094F94FF0000900F028BE04
:1005E8004F2800F01386502800F0FE854D2840F073
:1005F800A086DFF82092854E99F8000000EB4000B5
:10060800C0B20BF07DF94FF0000B00F03CBD732831
:1006180000F0F9836AD86A2800F0058416D866289D
:1006280000F0438107D8642800F00681652840F06F
:1006380080860B2011E1682800F0C88100F2D6817D
:1006480010200BF05DF94FF000095CE16E2800F016
:10065800F9810BD86C2800F0E08140F20384062071
:100668000BF04EF900200BF057F949E1702800F023
:100678007982C0F02682722840F05B86614E16208F
:100688000BF03EF9B6F850020BF03DF9B6F8D00081
:100698000BF039F9B6F8D2000BF035F9B6F8D400FA
:1006A8000BF031F9B6F8AC020BF02DF996F8A5026B
:1006B8000BF0DDF800200BF0DAF896F8A6020BF044
:1006C800D6F896F81F020BF0D2F896F84C020BF009
:1006D800CEF800200BF0CBF8B6F9EE310A2093FBE8
:1006E800F0F080B20BF00FF900F06BBC7D2800F041
:1006F800B5852AD8762800F0C6830AD8742800F071
:100708001583752840F015862F200BF0F9F8404E18
:10071800C6E2782800F00281C0F04F837C2840F0C0
:100728000886384E08200BF0EBF8B6F8D8000BF026
:10073800EAF8B6F8DA000BF0E6F8B6F8DC000BF0E9
:10074800E2F8B6F8DE0000F085BDA42800F0E683E4
:1007580018D8962800F08080A02800F01E847E28F3
:1007680040F0E785274E03200BF0CAF896F8C7013A
:100778000BF07DF896F8C8010BF079F896F8C901E6
:1007880000F0BCBDF12800F0FB80FE2800F0F483E7
:10079800F02840F0CE851B4E04200BF0B1F8B6F8D7
:1007A800F2010BF0B0F8B6F8F00100F053BD0320E9
:1007B8000BF0A6F800200BF05AF801200BF057F8C0
:1007C800102000F09BBD0BF09BF802200BF04FF8B7
:1007D80005200BF04CF8022000F090BD8A2F002075
:1007E800781F002038090020A81D00202CA8010827
:1007F8000C2B0020FC9F0020EFBEADDE00ED00E0DA
:100808000400FA05F8240020700C00205827002066
:100818005F850108042B002006200BF071F84C209E
:100828000BF025F855200BF022F858200BF01FF894
:1008380000200BF01CF863E007200BF061F8E720BC
:100848000BF015F8B64B58790BF011F800200BF0A7
:100858000EF8042000F0FABC0C200BF051F8B14B54
:1008680018880BF050F804F021FF0BF04CF8AE4B51
:100878001B68C3F3C000C3F38002800040EA420053
:10088800C3F340021043C3F3401240EAC20003F02E
:10089800100318430BF037F80AF00EFF0BF03CF882
:1008A8009F4B93F8B40400F029BD12200BF028F8F0
:1008B8009E4B1B88B3F5806F8CBF4FF0080A4FF032
:1008C800010A4FF000099A4B53F8290090FBFAF0FF
:1008D80009F1010980B20BF016F8B9F1030FF2D152
:1008E800944E30880BF00FF8B0880BF00CF8308974
:1008F8000BF009F800200BF006F800200BF003F8C5
:10090800002000F0A7BC8C4B13F8090009F101097D
:100918000AF0ADFFB9F1100FF5D10AE57020804E4D
:100928000AF0EEFF4FF0000AB346B6F856010AF097
:10093800EAFFB6F858010AF0E6FFB6F85A010AF0DD
:10094800E2FF96F85C010AF092FF96F85D010AF062
:100958008EFF96F85E010AF08AFF96F85F010AF0AA
:1009680086FF0E2303FB0AB30AF1010AD3F86001DC
:100978000AF0D2FFBAF1080F06F10E06D5D1D8E475
:100988007020674E0AF0BCFF06F1700A96F8E60080
:100998000AF06DFF96F8E7000AF069FF96F8E8009C
:1009A8000AF065FF96F8E9000AF061FF96F8EA0098
:1009B8000AF05DFF96F8EB000AF059FF073696F843
:1009C800E5000AF054FF5645E0D1B2E410200AF0E1
:1009D80097FF4FF00009594B13F8090009F1010975
:1009E8000AF045FFB9F1100FF5D1A2E4544E307862
:1009F800400000F0FE000AF083FF4FF00009B24605
:100A08009AF800309945BFF494AC4E4B33F819006E
:100A18000AF079FF09F10109F2E74B4E06200AF0C6
:100A28006FFF30880AF06FFF70880AF06CFFB6F924
:100A380004300A2093FBF0F02CE004200AF060FF59
:100A480000F003BC07200AF05BFF404B1888FF2822
:100A5800A8BFFF20C0B20AF00AFF3D4B18684FF646
:100A6800FF794845A8BF484620EAE07080B20AF0FE
:100A78004AFF384B18880AF046FF294B93F81F2283
:100A8800354B186842B10A2358434845A8BF484621
:100A980020EAE07080B2DDE300F30F00FAE7204EB1
:100AA80002200AF02DFF96F897020AF0E0FE96F869
:100AB800960200F023BC02200AF022FF274B188878
:100AC800C8E3274E0B200AF01BFF336818780AF09A
:100AD800CEFE336858780AF0CAFE4FF0000BB246D3
:100AE800DAF800301E4E5B440BF1010B18790AF05E
:100AF800BEFEBBF1030FF3D13368D8790AF0B7FE15
:100B0800336898780AF0B3FE3368D8780AF0AFFEF5
:100B1800336858890AF0F7FE3368187AEEE300BFA5
:100B2800F8240020822F0020E41D0020040000206B
:100B3800981500200C21002058090020F4210020DD
:100B4800042B0020141D002004210020CC180020B4
:100B5800B015002072160020AC150020A41D00203E
:100B68007C1F00201E200AF0CBFED04B1A6812789A
:100B7800022A4FF0000A994679D1D9F8003003EBE0
:100B88008A0393ED080AB2EE048A20EE080A15F0EB
:100B980053F880F30800C0B20AF069FED9F80030B3
:100BA800DFEDC37A03EB8A0393ED0B0A20EE270AE5
:100BB80015F042F880F30800C0B20AF058FED9F8E0
:100BC8000030DFEDBC7A03EB8A0393ED0E0A20EECA
:100BD800270A15F031F880F30800C0B20AF1010ABB
:100BE8000AF045FEBAF1030FC7D1BAF1070FD9F8D9
:100BF800003025D193ED110A20EE080A15F01CF8F3
:100C080080F30800C0B20AF032FED9F8003093ED44
:100C1800120A20EE080A15F00FF880F30800C0B297
:100C28000AF025FED9F8003093F84C3000EE103A5F
:100C3800B8EE400A15F000F880F30800C0B20DE0E5
:100C4800534458780AF013FED9F800305344D87A40
:100C58000AF00DFED9F800305344587D0AF1010A14
:100C68000AF005FEBAF10A0FBFD1FFF762BBD9F847
:100C78000030534458780AF0FAFDD9F8003053444C
:100C8800D87A0AF0F4FDD9F8003053440AF1010A81
:100C9800587D0AF0ECFDBAF10A0FE8D1FFF749BB1D
:100CA80016F8010F00283FF444AB0AF0E0FDF7E71F
:100CB80096F8B524804B0C2101FB0233043693F8D7
:100CC80038000AF0D4FD96F8B2040AF0D0FD96F880
:100CD800B3040AF0CCFD96F8B4040AF0C8FD5645F2
:100CE800E6D1FFF726BB5A20744E0AF009FE06F13A
:100CF8005A0A96F80A050AF0BAFD96F805050AF0A8
:100D0800B6FD96F806050AF0B2FD96F807050AF052
:100D1800AEFD96F808050AF0AAFD063696F8030512
:100D28000AF0A5FD5645E4D1FFF703BB4FF0000AD2
:100D380001264FF00009624B1B78994534DA614B64
:100D480019F803E04FF0000B5B4801900C2300F109
:100D5800300C03FB0BF313F80CC0F44507D1034424
:100D6800586B17F05DFB84463EB9334607E00BF13C
:100D7800010BBBF11E0FE7D113E0824411E063457C
:100D88000FDA019ACDF80CC00C2000FB0B2002935F
:100D9800406BC05C0AF06BFD029BDDF80CC00133B0
:100DA800EDE709F10109C6E7002E3FF4C2AA5FFA90
:100DB8008AF00AF0A5FD0026BBE7414E30780AF01C
:100DC8009FFD4FF00009B2469AF800309945BFF4EC
:100DD800B0AA3C4B19F803E0002137480C2200F177
:100DE800300C02FB01F313F80C20724505D10344C3
:100DF80093F838000AF03BFD02E001311E29ECD1DE
:100E080009F10109E0E708200AF07AFD4FF001092D
:100E18005FFA89F009F101090AF029FDB9F1090F12
:100E2800F6D1FFF786BA10200AF06AFD264B274E46
:100E3800187800F002000AF01AFD254B18780AF01D
:100E480016FD30680AF068FD70680AF065FD214BF0
:100E580018880AF058FD204B18880AF054FD1F4BDB
:100E6800188EF7E105200AF04BFD1D4B18880AF093
:100E78004AFD1C4B18880AF046FD184B93F83200BF
:100E880000F001003AE20AF0D3FC834612200AF08F
:100E980037FDBBF1000F01D1134B03E0BBF1100F7D
:100EA80026D1124BD3F800A05E6823E0700C002016
:100EB8000000C84200007A4460850108F824002038
:100EC800781D0020791D0020B4150020BC150020D5
:100ED800BA150020B8150020B615002038090020E2
:100EE8002C1600202E16002074160020E00B00207F
:100EF8000026B24658460AF0BAFC50460AF00CFDE5
:100F080030460AF009FDDD4B586B0AF005FD00205C
:100F18000AF0F9FC00200AF0F6FC87E1D74E96F8B3
:100F2800380080000130C0B20AF0EAFC96F83800B8
:100F38000AF09DFC4FF00009B3469BF838309945FC
:100F4800BFF4F7A9CE4E16F809000AF090FC06F196
:100F5800100306F1300A13F809000AF088FC06F1BC
:100F6800200313F809000AF082FC1AF809000AF0B5
:100F78007EFC09F10109E0E708200AF0C1FC4FF006
:100F88000009C04B33F8190009F101090AF0BBFC4C
:100F9800B9F1040FF5D1FFF7CCB90C200AF0B0FC79
:100FA800B94B18680AF0B8FCB84B18680AF0B4FCDA
:100FB800B74B18684AE104200AF0A2FCB54B9868C0
:100FC80044E196F812020AF052FC96F816020AF06A
:100FD8004EFC96F815020AF04AFC96F817028DE1C5
:100FE800AC4E07200AF08CFCB6F81A020AF08BFC0B
:100FF800B6F81C020AF087FC96F81E020AF037FCC5
:10100800B6F8200226E101200AF07AFCA14B5879B3
:1010180074E1A04E0C200AF073FC96F848020AF01E
:1010280026FCB6F854020AF06EFCB6F850020AF034
:101038006AFCB6F852020AF066FC96F84A020AF010
:1010480016FCB6F85C020AF05EFCB6F85E0201E136
:10105800904E08200AF054FC96F8AA020AF007FC01
:1010680096F8AB020AF003FCB6F8AC020AF04BFCA7
:1010780096F8AE020AF0FBFBB6F8B0020AF043FCA1
:1010880096F8B2023AE199F800309B4506F102065B
:10109800BFF44FA916F8020C0AF0E9FB16F8010C88
:1010A80000EB800000EB800000F2EE2080B20AF036
:1010B8002AFC0BF1010BE6E701200AF021FC754B35
:1010C80093F84C021AE108200AF01AFC4FF00009C4
:1010D800704B4B4409F1010993F840020AF0C7FB31
:1010E800B9F1080FF4D1FFF724B96A4E10200AF0BD
:1010F80007FC70790AF0BBFBB0680AF00DFC96F8A3
:1011080048020AF0B4FBB6F8CC010AF0FCFBB6F8CA
:10111800D0010AF0F8FBB6F8D4010AF0F4FBB6F8EF
:101128001A020AF0F0FBB6F81C0293E0534BDFF802
:10113800649193F87900C0EBC000C0B20AF0E0FBFC
:1011480009F1200A99F8B6020023534AD25C90426A
:1011580000F0D8800C33302BF7D109F10809D145BC
:10116800F0D1FFF7E6B8B6F86C030AF0CCFB96F8B6
:101178006E030AF07CFB043696F86B030AF077FBE3
:101188005645F0D1FFF7D5B8E020424E0AF0B8FB3B
:1011980006F1800AB6F8EE0200F03F000AF0B3FB51
:1011A800B6F8EE02C0F386100AF0ADFB96F8EC0232
:1011B80000090AF05CFB96F8EC0200F00F000AF058
:1011C80056FB043696F8E9020AF051FB5645E1D180
:1011D800FFF7AFB80D200AF093FB00200AF047FB99
:1011E80000200AF099FB2DE02A4E04200AF088FB23
:1011F80001200AF03CFB96F861050AF038FB96F8E6
:101208005F050AF034FB96F8600577E00B200AF0DA
:1012180077FB00200AF02BFB00200AF028FB0020B7
:101228000AF025FB0EE001200AF06AFB002065E0C9
:101238001A4B13F8090009F101090AF018FBB9F172
:101248000B0FF5D100200AF067FB00200AF064FBC1
:10125800FFF76FB80AF057FBFFF76BB80D4E032086
:101268000AF04EFB96F822020AF001FB96F82302D8
:101278000AF0FDFA96F8240240E000BF3809002081
:10128800710900209C180020ACF7FF1FB0F7FF1F62
:10129800B4F7FF1FF8240020142B002064A80108CD
:1012A8005CD9DB2873D040F29B84F22800F00485D7
:1012B80040F22C85F32840F074860AF0B9FAFF282A
:1012C8008246CF4E40F0AA854FF0000906F1800013
:1012D8004946602286F87E9017F061F88DF81390E1
:1012E8009DF8133096F8E220DFF814939A4200F242
:1012F800418501200AF004FB99F87E000AF0B7FA4C
:10130800FFF717B80AF0B3FAB9F8B8020AF0FBFA0F
:1013180099F8BA020AF0ABFA99F8BB020AF0A7FAF0
:1013280099F8BD020AF0A3FA99F8BC020AF09FFAEC
:1013380013E7512830D1B24B93F87C30012B26D8D3
:101348000AF076FAAF4E86F861050AF071FA86F867
:101358005F050AF06DFA86F8600518E0CD2800F000
:101368003D8240F24582D02800F09E8340F2A88357
:10137800D12800F0EE83D22840F03186A24B1B78AA
:1013880003F0040303F0FF09002B00F01E84002083
:101398000AF0B6FAFEF7CDBF00F21782352827D13A
:1013A8000AF046FA0E28824602D90FF079FCEEE7D9
:1013B8000AF03EFA0328F8D8924B4FF0060909FBC9
:1013C8000A3989F80A050AF033FA89F805050AF096
:1013D8002FFA89F806050AF02BFA89F807050AF0AA
:1013E80027FA89F808050AF023FA89F80905CEE7EB
:1013F80000F2E0802B2804D10AF01AFA814B5871C8
:10140800C5E76DD8252807D17E4B00229A600AF0DF
:1014180025FA05F05BFDBAE73DD8232840F0DF85C3
:101428000AF006FA13288146BFD80AF001FA00220A
:1014380076490C23534301EB030E9EF838E08645AA
:1014480025D1704E0B4409F5967906EB890993F876
:10145800303089F805300AF0EBF989F806000AF00F
:10146800E7F989F807000AF0E3F9694B69491A684E
:1014780089F8080006F1D0030B60674B00201A605A
:101488000FF0D3FA654B80F0010018707FE7013246
:101498001E2ACDD189E727280DD10AF0D5F9594E52
:1014A800C6F8CC010AF0D0F9C6F8D0010AF0CCF998
:1014B800C6F8D4016BE7292840F091850AF0C4F9F1
:1014C800504EA6F81A020AF0BFF9A6F81C020AF054
:1014D800AFF986F81E020AF0B7F9A6F8200256E717
:1014E8002F2800F0668525D82D2840F078850AF049
:1014F8009FF9444E86F848020AF0A6F9A6F8540265
:101508000AF0A2F9A6F850020AF09EF9A6F85202CB
:101518000AF08EF92B6886F84A025B79082B7FF669
:1015280036AF0AF091F9A6F85C020AF08DF9A6F830
:101538005E022CE7312834D10AF07AF91F28814657
:101548003FF633AF2B685B79082B7FF42EAF0AF098
:101558007BF92C4B09F1BA0903EB890900F03F002C
:10156800A9F806000AF070F9B9F80630800100F40D
:10157800FE501843A9F806000AF05AF9000189F844
:1015880004000AF055F999F8043000F00F001843E8
:1015980089F804000AF04CF989F805000BF0A8FC5A
:1015A800F5E6332840F01B850AF042F9154B83F81D
:1015B8004C02ECE641280DD14FF000090AF038F949
:1015C800104B4B4409F10109B9F1080F83F84002A7
:1015D800F4D1DCE600F28180392821D10AF028F91B
:1015E800084E86F812020AF023F986F816020AF065
:1015F8001FF986F815020AF01BF986F81702C6E6E5
:1016080038090020F82400208A2F0020608501086E
:10161800700C0020D00B0020D40B0020020000200A
:1016280036D8372840F0DB845B794FF00709B3FBE5
:10163800F9F2C2EBC2029A1A12F0FF0F7FF4B5AEAC
:10164800B3FBF9F909F1FF395FFA89F9B9F1FF0F2D
:101658003FF49DAE0AF0ECF85FFA80FB4FFA8BF08E
:101668000AF038FE064600283FF49FAE80F800B026
:101678000AF0EAF870800AF0DBF830710AF0D8F85E
:1016880070710AF0D5F8F0710AF0D2F8B071D9E7A4
:101698003C2815D1D04ED6F800A09AF800B00AF030
:1016A800C7F88AF80000336818780DF0A9FE336887
:1016B8001B785B453FF46BAE00200AF036F966E60E
:1016C8003E2840F08C840AF0B3F8C44E86F897029E
:1016D8000AF0AEF886F8960259E64A2802D10AF0CE
:1016E800B3F8EAE72CD8432822D10AF0A1F8BB4E78
:1016F8000023B36070710AF0B1F805F0E7FB0AF057
:1017080097F886F848020AF09FF8C6F8CC010AF064
:101718009BF8C6F8D0010AF097F8C6F8D4010AF089
:1017280093F8A6F81A020AF08FF8A6F81C022EE61B
:10173800442840F05484AA4B012283F87D2026E6F1
:101748004C2819D10AF074F8A44E86F8AA020AF0B7
:101758006FF886F8AB020AF077F8A6F8AC020AF040
:1017680067F886F8AE020AF06FF8A6F8B0020AF039
:101778005FF886F8B2020AE64E2840F030840AF094
:1017880057F8112882463FF610AE0AF051F8934EEA
:101798000AF5987AB14606F81A000AF055F840F2A8
:1017A800ED23984205DD40F6CA039842A8BF1846C3
:1017B80001E040F2EE2009EB4A09A0F2EE201923DD
:1017C80090FBF3F089F80100E1E5D3287FF468ADD8
:1017D8000AF03AF8824BA3F87A00D8E5814B1B78D7
:1017E8005A073FF5D4AD804B4FF4C8721A80CEE546
:1017F800C92825D10AF01CF87C4B1A7810B142F0A0
:10180800020201E022F002021A700AF011F8784B85
:10181800784E18700AF022F830600AF01FF87060ED
:101828000AF012F8744B18800AF00EF8734B6C4AE1
:10183800188092F8323043F0020382F83230A6E57D
:101848002ED8C82840F0CB8393F805904FEA590961
:10185800B9F1120F3FF6A9AD4FF0000ACA4507D2F9
:1018680009F0F2FF0DAB23F81A000AF1010AF5E7B7
:101878004A4600234B4507DA0DA931F813006049A1
:1018880021F813000133F5E7122A05D05C4B00213B
:1018980023F812100132F7E75A4B01221A7076E545
:1018A800CA2840F0B5804C4B1A681278022A4FF0CB
:1018B800000A994672D1D9F8006009F0B9FF07EE1D
:1018C800900AF8EE677AB2EE048AC7EE887A06EBD9
:1018D8008A0BD9F80060CBED087A09F0A9FF07EE6A
:1018E800900A9FED497AF8EE677A06EB8A0BC7EE05
:1018F800877AD9F80060CBED0B7A09F099FF07EEEB
:10190800900A9FED427AF8EE677A06EB8A0BC7EEEB
:10191800877A0AF1010ABAF1030FCBED0E7ACAD120
:10192800BAF1070FD9F800601CD109F081FF07EE62
:10193800900AF8EE677AC7EE887AC6ED117AD9F878
:10194800006009F075FF07EE900AF8EE677AC7EEB7
:10195800887AC6ED127AD9F8006009F069FF86F82E
:101968004C0015E009F064FF06EB0A0B8BF8010048
:10197800D9F8006009F05CFF06EB0A0BD9F80060A3
:101988008BF80B0009F054FF06EB0A0B8BF81500D7
:101998000AF1010ABAF10A0FC2D1F8E4D9F80060D5
:1019A80009F046FF06EB0A0B8BF80100D9F8006036
:1019B80009F03EFF06EB0A0BD9F800608BF80B0024
:1019C80009F036FF06EB0A0B0AF1010ABAF10A0F11
:1019D8008BF81500E2D1DAE4700C0020F82400201E
:1019E800380900208A2F0020940B0020B41500200D
:1019F800BA150020BC150020B8150020B615002027
:101A0800401C0020952300200000C84200007A44B2
:101A1800CC2840F0E4825B79092B7FF6C6ACCB4E2C
:101A2800D6F800A009F004FF8AF80000D6F800A054
:101A380009F0FEFE8AF8010009F0FAFE336864280E
:101A4800A8BF6420187109F0F3FE33686428A8BFA2
:101A58006420587109F0ECFE3368FF28A8BFFF2006
:101A6800987109F0E5FED6F800A0642828BF642024
:101A78008AF8070009F0DCFE8AF80200D6F800A010
:101A880009F0D6FE8AF80300D6F800A009F0DCFEBB
:101A98002B68AAF80A005B790A2B7FF678AC3668BF
:101AA80009F0C6FE307272E4A94B1B7859073FF55E
:101AB8006EAC0FF05DF905F03BFA05F0D3FA66E479
:101AC800CE280AD1A24B1B785B073FF560ACA14A30
:101AD800137843F00403137059E4CF2840F07F8251
:101AE80009F0B2FE6FF4AF6683199BB29A4EC62B0B
:101AF80098BFA6F8500209F0A7FEA6F8D00009F092
:101B0800A3FEA6F8D20009F09FFEA6F8D40009F0BB
:101B18009BFEA6F8AC0209F08BFE86F8A50209F038
:101B280087FE09F085FE86F8A60209F081FE86F890
:101B38001F0209F07DFE86F84C0209F079FE09F0D3
:101B480083FE00EB80004000A6F8EE0109F070FE6D
:101B580047E509F06DFE019009F080FE824609F024
:101B68007DFE834609F07AFE814609F06DFE09F094
:101B78006BFE09F05DFE019B784E93B9784B1020FF
:101B880083E8000C05F07AF9724A137843F00103F0
:101B98001370B9F1000F3FF4FAABC6F83490FFF7B1
:101BA800F6BB102B7FF4F3AB6E4B83E8000CB9F156
:101BB800000F01D0C6F834906A486B4B0222011D11
:101BC8001A7007F0ABFFFFF7E2BB09F031FE624B7A
:101BD800012883F8B4047FF66EAF83F8B4946AE7FB
:101BE800D6280DD14FF0000909F02EFE5F4B23F8DF
:101BF800190009F10109B9F1080FF5D1FFF7C7BBC1
:101C080033D8D42840F0EB815B790F2B7FF4CDAB30
:101C180009F00EFE072882463FF6C7AB09F014FE0E
:101C28004D4B4FF00E0909FB0A39A9F8560109F086
:101C38000BFEA9F8580109F007FEA9F85A0109F0A6
:101C4800F7FD89F85C0109F0F3FD89F85D0109F0F9
:101C5800EFFD89F85E0109F0EBFD89F85F0109F0F5
:101C6800FDFDC9F86001FFF792BBD92812D109F030
:101C7800EBFD394EA6F8D80009F0E6FDA6F8DA0023
:101C880009F0E2FDA6F8DC0009F0DEFDA6F8DE00AA
:101C9800FFF77DBBDA2840F0A28109F0C9FD2E4E7E
:101CA80086F8220209F0C4FD86F8230209F0C0FD77
:101CB80086F82402FFF76BBB09F0BAFD0F288146AE
:101CC8003FF673AB09F0B4FD294BC9EBC909994438
:101CD80089F8060009F0ACFD89F8070009F0A8FDAD
:101CE80089F8080009F0A4FD89F8090009F0A0FDA9
:101CF80089F80A0009F09CFD89F80B0009F098FDA5
:101D080089F80C000DF0DAFAFFF741BBDC280ED198
:101D180009F08EFD104E86F8C70109F089FD86F896
:101D2800C80109F085FD86F8C901FFF730BBEF2827
:101D380040F0558109F088FD074EA6F8F20109F038
:101D480083FDA6F8F001FFF722BB00BF7C1F00202F
:101D58008A2F0020B4150020F8240020380900201C
:101D680074160020E00B0020D80B0020801F0020F4
:101D7800D82500209DF8133009EBC30393F8E5300C
:101D8800D80743D59DF8133009EBC30393F8E42033
:101D9800C24B33F91230002B38DD9DF8133099F817
:101DA8007EA009EBC3034FEACA01D3F8E8305868AC
:101DB8009DF8133009EB010E09EBC309CEF880003A
:101DC800D9F8E8301A89AEF8862092B24FF0000EA2
:101DD800012303FA0EF3134005D10EF1010EBEF1F3
:101DE800100FF5D100E0734631440AF1010AA1F859
:101DF800843004238DF836300DA90123ADF8342042
:101E08008DF8373003F038FB86F87EA09DF8133044
:101E18000133DBB28DF81330FFF762BA96F87E30E3
:101E28009842BFF4C2AA002009F06AFD09F030FD0B
:101E3800D8F800000AF072FC2B6818680AF0E7FC72
:101E4800D9F8000009F0D4FC0AF006FC72B6DFF8F5
:101E580054924FF400624FF48066A9F828204FF09E
:101E6800010BA9F828604846ADF834200DA90422D2
:101E78008DF836208DF837B003F0FEFA48460DA9E4
:101E88008DF836B08DF837B0ADF8346003F0F4FA59
:101E9800834A4FEACA0A5244D2F88010B2F884E062
:101EA8000868B2F886200EFA0BFE0BFA0EFB4BEA16
:101EB800000008608A61C9F81860B9F8103019057F
:101EC800FBD4DFF8DC9109EB0A030122D3F8800088
:101ED800B3F884E001684FEA4E0E02FA0EF20A43A4
:101EE8000260D3F88020B3F886106E4B11854FF44A
:101EF80080621A856C4B1E689A88B2619A689B89C1
:101F0800138540F6055BDFF89CC1BCF810301A0554
:101F180005D4BBF1000FF6D00BF1FF3BF3E7042328
:101F28008161ADF834108DF836300DA90123CDF854
:101F380004C08DF8373003F09FFA5B4BDDF804C01E
:101F48009A68998991619988BBF1000F17D0D3F8E5
:101F580000E05448038A1B05B3D509EB0A03D3F8FC
:101F68008020B3F88630128A13424FF4806315BF7D
:101F780083610385CEF81810AEF82810E9E71B68CE
:101F88004FF48062CCF81820996162B60A200AF0F2
:101F980034FC0EF061FD2B68F32283F84920FFF72B
:101FA800F6B9FA281BD1414B1B785E077FF583AD44
:101FB80015E0DFF8189109F1400A09F045FCA9F885
:101FC8006C0309F035FC89F86E0309F031FC09F15E
:101FD800040989F86B03D145EFD1FFF7D8B90EF0A2
:101FE8005FFEFEF7A6B90C2803D1314809F04EFE72
:101FF8004AE00A2801D00D287FD12E4D2E4809F03D
:1020080045FE2846232116F0FEF908B1401B206042
:1020180023687BB35A1EA95C202901D11346F8E72F
:10202800244A23600021D154244B254FD3F8009033
:10203800D7F800A01F4E504616F0F2F905462A467A
:102048003046514616F0F4F91E4A20B9735D4B44E8
:102058005B785B0703D010379742E9D306E09742D5
:1020680004D2681CFB683044984702E0164809F01F
:102078000DFE00230F4823600021302216F08FF94F
:10208800009B1B78002B44D00AF054FBFEF78AB85B
:102098000C28AAD07F281ED1FEF784B8F42100208E
:1020A8003809002000040048B82400208A2F0020A6
:1020B80001A801089C1F002091B00108C00300205E
:1020C80084A1010864A301080CA80108F8240020D1
:1020D8002F2B3EF667A8A0F12002D2B25E2A3EF668
:1020E80061A813B920283EF45DA85A1C22600B4A47
:1020F800D05409F067FCFEF755B87F28E8D1013BBA
:10210800064A074823600021D15409F0BFFDFEF7B5
:1021180049B817B0BDEC028BBDE8F08F9C1F0020BA
:1021280028A801082DE9F04FA34FA44C3A6802F5FE
:102138009C432DED028B20332360A14B1E7889B080
:10214800D6B1A04909688A4240F20A81013E1E7050
:1021580006E1DFF890829C48D8F80030072D98BF38
:10216800595D9A4B88BF29461B689847032D09D9A2
:1021780004EB45050136A88009F00AFAF5B2854254
:10218800E7D320E0D8F8002005F1100302EB830321
:102198009988DA880028EBD04FF47A73401A5843AC
:1021A800531A90FBF3F040F6C90300F57A70984291
:1021B80005DC40F2EE239842B8BF184601E040F62D
:1021C800CA0080B2D4E7824B824E1B68D6F80080E2
:1021D80042F2010A03EA0A0ABAFA8AFA4FEA5A1AD2
:1021E8007D4BBAF1000F05D194F828201A707B4A6C
:1021F800517811701B782BB1784B93F8009089F0C7
:10220800010900E099460F23DFF8F0B184F829307E
:10221800002509F0BDF9854267DA6B00B9F1000FB6
:1022280003D06F4A32F8150000E048466D4ADFF8DF
:10223800D0C111688A8B82424FEA850E6A4A02D859
:10224800C98B81421CD25CF80E005C49804501D2E2
:10225800D05A19E0E8B205920293009109F0B0F95A
:10226800032D029B059A0FDC00994FF0010E91F89F
:1022780029C00EFA05FE2CEA0E0E81F829E003E0CB
:1022880008F596714CF80E10BAF1000F28D194F8A1
:10229800BC100322B1FBF2F202EB42028A1A03EBF2
:1022A800050E5EFA82F204EB4202508594F8BD20D6
:1022B8002AB9022913D9414A012182F8BD10BBF875
:1022C80000203BF8020C1044BBF802201044474A97
:1022D80080B2D05200B2032290FBF2F080B2424AA0
:1022E800D05201350BF1060B93E794F82920404BA7
:1022F800A2F10F0EDEF1000242EB0E0284F8D620A6
:102308006AB13C4A1268550109D43268D9689A60A2
:10231800521AC82A1FD9012283F821201BE02F4A0C
:1023280001215170117032689968DA605B68521A3D
:102338009A4282BF2E4B002283F82120002509F003
:1023480027F9854207DAE8B209F03AF9264B23F86B
:1023580015000135F3E794F8BC30013384F8BC303C
:102368001B4E3368D80405D5224B1B68D90701D406
:102378000FF085FB1B4B39681868037B002B41D095
:10238800013B194D827B35F813301AB1C3F53B6315
:1023980008339BB21BB2A3F57A73B3F57A7FA8BF53
:1023A8004FF47A7323EAE37307EE903A9FED127ABB
:1023B800F8EEE77A5EE000BF702F0020880A002060
:1023C8003C1D0020381D0020042B00201401002093
:1023D800101D0020401D0020441700200000002090
:1023E8008C0A00200C1D0020141D0020460B002024
:1023F800441D0020741D002000007A44B40A002007
:10240800FC0A00203268120440D5D4F8D820B14F15
:102418008A1A002A3ADB01F59C422032C7F8D820F4
:10242800AD4A407B5579AD4A32F8152097F8DC5013
:10243800013592B292FBF0F205F00F0087F8DC004C
:10244800384480F8DD201A46A548185C0133024458
:10245800102B92B2F8D112B292FBF3F31BB2642B99
:10246800A8BF642323EAE37307EE903A9FED9D7AB1
:10247800F8EEE77AC7EE877A9B4A9FED9C7A67EE7B
:10248800877AFCEEE77A17EE903A13803368984D16
:1024980013F4807F00F0FF80964BDFF85C9299423E
:1024A80005D999F8022012B9012289F8022099F871
:1024B8000220002A00F0EF808F4A95F8008092F8F9
:1024C80021708E4A07F1FF3EDEF10007116847EBE5
:1024D8000E07002FC1F38063C8F38008009392466B
:1024E80014BF4FF0000B4FF0020B99F82020052A7B
:1024F80000F2CB80DFE802F0034C608695B2B8F1B9
:10250800000F38D0D4F8F000B4F8F4100AF060F8EE
:10251800012809D17A497B4A09681268C988642068
:1025280000FB0122C9F81020009B5BB1744A1268B5
:1025380012793AB110F0DAF8032289F820204FF422
:102548007A7236E0002F40F0A0806E4AD9F8101059
:102558001068694A88420AD9029210F0C7F8029AAC
:10256800032182F8201040F6B831D161BDE701217E
:1025780082F82010B9E7009B4FF4806013B104F093
:102588008DFC01E004F07AFC0022C9F810207CE000
:10259800002F58D15A4A1268127A012A02D010F034
:1025A800A5F8A2E710F0A2F8032289F8202040F647
:1025B800B832C9F81C2098E727B1052289F82020ED
:1025C800012000E03846B8F1000F0CD0D4F8F02014
:1025D800118A4D4A1180518091804949096849887A
:1025E800D1804FF0030B474A1168D9F81420914263
:1025F80002D8B8F1000F45D147F23052C9F81C2073
:10260800032221E02A7842F002022A700FF037FAFA
:102618003C4AD9F81C1012680A44C9F81820042248
:1026280012E0384A9FB11168D9F8182091422CD984
:10263800364A92781AB9DAF80020D00725D42A78D1
:1026480022F002022A70052289F820204DE712683C
:10265800D9F81C100A44C9F8182016E02849294A54
:1026680009681268C988642000FB0122C9F8102093
:102678004FF48060002289F8202089F8032004F0B4
:10268800FDFB32E700287FF430AFBBF1000F02D02A
:10269800584609F0F5FF1E4FB7F8DE1007F5107021
:1026A80009F096FF184AB7F85032B2F9021083467B
:1026B80003F10B00884290462CDB0B3B8B4229DC54
:1026C800B2F90010884225DB8B42CCBF00230123DE
:1026D80021E000BF880A0020801800209018002000
:1026E800650B00200000C8427216002000C07F441D
:1026F8008A2F0020404B4C00441D0020741D0020F0
:10270800602F0020401D0020141D00200000002024
:10271800F82400200023BBF1000F30D19B49096841
:10272800090106D59A49C97899B929784A0710D56F
:1027380028E0984B98480021196059609960974B98
:10274800C0F800B00121C0F804B0C0F808B0197092
:102758000BE09049904A00200860486088608F49E3
:1027680000231360536093600B708D4B0021196038
:1027780059600023C4F8F830C4F8FC3004E08749F5
:1027880000230B7087490B702B78580735D53368B1
:10279800D90632D5844B1B78DA062ED4834B9B7826
:1027A80093B197F89732BBF1000F15D17BB1804BED
:1027B8001968D4F800315B1A002B08DA0FF05FF9BA
:1027C8007C4B83F804B118E0BBF1000F0DD1102049
:1027D80009F056FF01230EE03BB1754909684FF433
:1027E8007A7000FB0313C4F8003194F8043123B164
:1027F80009F032FF002384F8043197F895320093EA
:1028080097F89612B7F852C2B7F8549200239E462A
:1028180038F913004FEA9E0E6045C4BF6EF07F0E74
:102828005FFA8EFE01334845B8BF4EF0400E042BC8
:10283800EED194F805315F48734505D190F806311B
:10284800F92B04D8013300E0002380F80631574BF8
:1028580058489A7884F805E19A46DFF8309132BBF7
:10286800D9F80030DB070AD580F80721BBF1000F43
:102878001DD12B78D9071AD50EF066FF17E02B78F3
:102888005A0714D54C4B1B788BB1414BDB7873B985
:1028980090F807310133DBB2032B80F8073106D9F2
:1028A80011B10FF0ECF802E0BBF1000FF9D094F889
:1028B8000631404A142B40F09C80009B13F1000B1A
:1028C8009AF8023018BF4FF0010B6BB392F805313C
:1028D8005F2B11D12B7803F0040303F0FF0113B130
:1028E8000FF0CDF808E00B200291009209F0C8FE25
:1028F800009A029982F80611BBF1000F14D094F8DF
:1029080005317D2B10D12B7803F0040303F0FF026F
:1029180013B10FF0B4F807E00B20009209F0B0FEF5
:10292800244B009A83F806212B7803F0040303F064
:10293800FF01002B5DD194F805311E4A572B09D1B0
:102948001E4B4FF47A721A8033681B0651D507F074
:1029580091F94EE03068400732D55A2B30D192F8C1
:1029680008312BB1012382F8081182F8093140E0BF
:1029780092F80A3183F0010382F80A310BB10C2076
:1029880000E00D2009F07CFE33E000BF741D00203C
:10299800441D00208C2E0020F0200020182100204B
:1029A800D02100201C210020B415002000000020A8
:1029B800401D0020880A002044170020802F002096
:1029C8005D2B00F0FC865B2B00F0FB865E2B00F095
:1029D800FA86562B01D104F0D7FC9AF80230002B66
:1029E80000F0C08694F805316F2B40F0B5860EF0E4
:1029F800ABFE3368580737D594F80A31B24A93B119
:102A08002B7859070FD5B8F90610B7F85232994202
:102A180009DDD9F8003013F0010302BF3221A2F812
:102A28000E1182F80A31D9F80030DB030DD594F87D
:102A38001021A54B2AB993F8082112B93222A3F81C
:102A48000E21012384F810310EE094F808319E4AD3
:102A580053B12B7803F0040303F0FF0123B90123DA
:102A680082F8081182F80931984D0023C9F800301E
:102A780005F150072A786B7815F8010C9A420DD2A7
:102A8800294609F06BFD48B115F8022C012303FA19
:102A980002F2D9F800301343C9F800300435BD42BA
:102AA800E8D18B4B1B7853B18A4BDFF84C921A68EC
:102AB800894F12F0020F984640F03B8333E3874D6D
:102AC80005F15A072A786B7815F8010C9A4225D235
:102AD800294609F043FD08B3AB78814A95F804E02C
:102AE80095F803807849013B03EB430313440C2218
:102AF80002FB0E42D2F8180198420FD0C2F81831E2
:102B08000023C2F81C3182F81481012391F8442172
:102B180003FA0EF322EA030381F844310635BD4275
:102B2800D0D1704BDFF8D4A11D686F4B1B680093A0
:102B38006E4B1B7802934FF00009DAF80020002A48
:102B480000F0E88292F80080B8F1000F00F0E2820D
:102B5800DAF804300099CB1A002B0CDB01F5FA7374
:102B6800CAF8043094F84411012303FA09F321EA5E
:102B7800030384F84431029B002B00F0CB821AF83F
:102B8800043C51780433DBB2002940F07C82584978
:102B980031F91310574BB3F8503203F1C800814292
:102BA80002DD92F802B015E0C83B994203DA917849
:102BB800C1F1000B0EE094F84421012303FA09F354
:102BC80022EA030384F84431009B03F5FA73CAF838
:102BD80004309FE294F8443143FA09F3DF0700F127
:102BE8009982BBF1000FCCBF0220012009F07EFDC5
:102BF80008F1FF33344F132B00F28482DFE813F01F
:102C0800140021002F0043005C008600E9004C01FD
:102C1800B301E10111028202430052008600E9007B
:102C28004C01BB001E0183012F785F44FA2FA8BF17
:102C3800FA2727EAE77728462F7009F075FC012064
:102C48000BE06F785F44642FA8BF642727EAE77713
:102C580028466F7009F068FC02203946DEE195F8D5
:102C68000380D844B8F1640FA8BF4FF0640828EA7D
:102C7800E87885F803802846D7F8481109F00AFC57
:102C880003204146CAE1697959446429A8BF6421EF
:102C980021EAE17169710D2009F0CAFCB8F10D0F44
:102CA80000F03082297959446429A8BF642121EAB7
:102CB800E17129710E20B1E1A979594481F3080124
:102CC800A9710520AAE100BF880A0020AF290020C9
:102CD8008D2F0020741D0020701D0020FE2900206B
:102CE800F88601087C1F0020401D002044170020A2
:102CF800141D0020F8240020E41D0020A00B002053
:102D080000007A440000C84200000000D7F84C31A7
:102D18001A78022A20D107EE90BAB8EEE70A5FEDDA
:102D2800077A93ED097A80EE270A30EE070AB5EEA6
:102D3800C00AF1EE10FA07D4B4EE670AF1EE10FA01
:102D4800C8BFB0EE670A01E01FED110A83ED090A5A
:102D58000F2009F057FC0AE099785944C829A8BF00
:102D6800C82121EAE17199700F2009F061FCB8F1DE
:102D78000F0F00F0C781D7F84C311A78022A1ED1FC
:102D880007EE90BAB8EEE78A5FED227A93ED080A6B
:102D980088EE278A38EE000AB5EEC00AF1EE10FA7E
:102DA80007D4B4EE670AF1EE10FAC8BFB0EE670AAE
:102DB80001E01FED2B0A83ED080A122056E159782D
:102DC8005944C829A8BFC82121EAE17159701220C5
:102DD80024E1D7F84C311A78022A20D107EE90BAAC
:102DE800B8EEE70A5FED397A93ED0C7A80EE270AA0
:102DF80030EE070AB5EEC00AF1EE10FA07D4B4EEC9
:102E0800670AF1EE10FAC8BFB0EE670A01E01FEDDD
:102E1800420A83ED0C0A102009F0F4FB0AE0197B42
:102E28005944C829A8BFC82121EAE17119731020A3
:102E380009F0FEFBB8F1100F00F06481D7F84C31AF
:102E48001A78022A1ED107EE90BAB8EEE78A5FED2B
:102E5800537A93ED0B0A88EE278A38EE000AB5EE0E
:102E6800C00AF1EE10FA07D4B4EE670AF1EE10FAD0
:102E7800C8BFB0EE670A01E01FED5D0A83ED0B0ADB
:102E88001320F3E0D97A5944C829A8BFC82121EAF8
:102E9800E171D9721320C1E0D7F84C311A78022AAF
:102EA80022D107EE90BA1FED6A0AF8EEE77A87EEAC
:102EB800800AD3ED0F7A30EE270AB5EEC00AF1EE9C
:102EC80010FA09D45FED717AB4EE670AF1EE10FAE0
:102ED800C8BFB0EE670A01E01FED750A83ED0F0A5F
:102EE800112009F08FFB0AE0997D5944C829A8BF31
:102EF800C82121EAE1719975112009F099FBB8F10F
:102F0800110F00F0FF80D7F84C311A78022A20D12F
:102F180007EE90BA1FED860AB8EEE78A88EE008AB7
:102F280093ED0E0A38EE000AB5EEC00AF1EE10FA7B
:102F380009D45FED8C7AB4EE670AF1EE10FAC8BFD7
:102F4800B0EE670A01E01FED900A83ED0E0A142027
:102F58008CE0597D5944C829A8BFC82121EAE171EC
:102F6800597514205AE0D7F84C311A78022A1ED124
:102F780007EE90BAB8EEE78A5FED9E7A93ED0A0AFB
:102F880088EE278A38EE000AB5EEC00AF1EE10FA8C
:102F980007D4B4EE670AF1EE10FAC8BFB0EE670ABC
:102FA80001E01FEDA70A83ED0A0A09205EE0D9783F
:102FB8005944C829A8BFC82121EAE171D97009205C
:102FC8002CE0D7F84C311A78022A1ED107EE90BAB5
:102FD800B8EEE78A5FEDB57A93ED0D0A88EE278A99
:102FE80038EE000AB5EEC00AF1EE10FA07D4B4EED6
:102FF800670AF1EE10FAC8BFB0EE670A01E01FEDEC
:10300800BE0A83ED0D0A0A2030E0597B5944C829CD
:10301800A8BFC82121EAE17159730A2009F008FB09
:1030280070E0D7F84C311A78022A22D107EE90BA0C
:103038001FEDCD0AB8EEE78A88EE008A93ED100AF4
:1030480038EE000AB5EEC00AF1EE10FA09D45FEDC9
:10305800D37AB4EE670AF1EE10FAC8BFB0EE670A89
:1030680001E01FEDD70A83ED100A0B2009F0CAFA18
:1030780048E0D97D5944C829A8BFC82121EAE1718F
:10308800D9750B20CAE701293CD19078AD4A32F9AD
:103098001370B7F5617F05DB40F633039F42A8BF85
:1030A8001F4601E04FF46177B8F10C0F2AD1A64A08
:1030B8004FF4966393FBF0F01378A7F5617797FBCD
:1030C800F0F7FFB2BB421DD0A049042F34BF3B46E6
:1030D800022391F8B404137084224243881880F8BC
:1030E800083408FB03230B44994A03F20A4313608C
:1030F8000DF0F8FD4046394609F09AFA781CC0B23E
:1031080009F0F4FA94F84421012303FA09F313436C
:1031180084F8443109F10109B9F1040F0AF10C0AE4
:103128007FF40BADC0E43368DD050ED5894BDB7841
:103138005BB1D9F80030980707D53B8813F0010533
:1031480008D1012003F0AAFE04E0012003F096FE56
:10315800012300E00023D8F8002051070AD54BB11D
:10316800012003F08BFE3B889A0706D4022003F067
:1031780095FE02E0022003F081FE774B3D889A68B5
:103188009B8915F0030F14BF13859361D9F800309C
:103198009B0609D4D8F800301D0540F18B804FF408
:1031A800807003F07BFE89E06C4B1B78980750D544
:1031B8006B4B1B78042B4CD9D8F8003013F40079EA
:1031C80005F010050DD0002D37D1102003F066FE54
:1031D800202003F053FE6348011D06F09FFC0223E4
:1031E80027E0ADB22DB1102003F048FE012584F888
:1031F8005091D8F80030590514D5D4F854315A49AB
:103208005A89B1F90030DFF86491002BB8BF5B42EE
:10321800934207DAB1F90230002BB8BF5B42934200
:10322800C0F2F6823B889A0608D5202003F026FED5
:10323800002384F85031012500E0002594F860311E
:10324800A3B90E2009F01CFA484B012283F860212B
:103258000CE015F0300F9DD0102003F00FFE202059
:1032680003F00CFE002384F8503101E0002D91D0CA
:103278003F4B002003F1280703F150053D4A002188
:1032880022F810103C4A596022F810100432796074
:1032980022F8101000221A609A603A60BA602A6018
:1032A8006960AA6014331437143500287FF472AFAC
:1032B8000120E3E74FF4807003F0E0FD234F7B79B2
:1032C800082B01D00E2B02D1402003F0D7FD336824
:1032D8005B051AD597F8D83223B9284B1B7813F019
:1032E800040F03E0D8F8003013F4002F09D0244B62
:1032F80000221A703C200DF09FFC30B108F078FADB
:10330800F8E709F0ADFC0DF0A7FB012384F8E431E0
:103318000C4BB3F906100E4BD3F800E0BEF80A20A8
:1033280091422FDBB1F5FA6F9EF80750BDBF8B1A9B
:103338006B43A2F5FA65C5F16405BCBF93FBF5F5CF
:10334800643520E0141D0020E01D0020F824002032
:103358007C1F0020441D0020B8240020B415002044
:10336800BA15002074160020FC200020880A0020CE
:10337800EC0B0020842F0020640C00208A2F0020F2
:10338800102B0020642597F82232009397F82332F7
:10339800029397F9D831B7F85082D4F8E8619BB214
:1033A80005930022BC4B33F91290C8EB090303F2D2
:1033B800F31440F2E63084424FEA420A03D8002B65
:1033C800B8BF5B4201E04FF4FA73022A4FF0640081
:1033D80029D0009C1CB1A342CCBF1B1B0023AF4CBF
:1033E80093FBF0F76FF0630B34F817C00BFB073B48
:1033F800013734F917400FFA8CF7E41BA84F04FB88
:103408000BF494FBF0F4644427F80A400EEB020432
:1034180024796343A34C93FBF4F364339BB26B436B
:1034280093FBF0F02CE0029C1CB1A342CCBF1B1B09
:1034380000239D4C93FBF0F06FF0630C0CFB003BFA
:1034480004EB400704EB4000B7F9EC71B0F9EE016A
:10345800C01B00FB0BFBBDF814009BFBFCFBC7EB80
:103468000B0B1BFB00FB8E48A0F804B09EF806006F
:10347800002BB8BF5B4243438A4893FBF0F06430AB
:1034880073788A4F6424434393FBF4F3BB54884F07
:10349800F37A434393FBF4F3BB54737D5843854B52
:1034A80090FBF4F0022A98547D4B83480DD1C14516
:1034B80084700DDB814CB4F85202814214DBB1F503
:1034C800FA6FA8BF4FF4FA610FE0C145855404DADA
:1034D80033F80A00404223F80A000132032A06F1B1
:1034E80001067FF45FAFE5E70146DFF8E8E16C4DE0
:1034F800091A4FF47A726FF063065143C0F5FA6007
:103508006422B1FBF0F191FBF2F03EF8107006FB7B
:10351800001101303EB23EF91000801B414391FB7F
:10352800F2F23A44DA80664B1E8806F04006B6B2DC
:10353800D6B3644BDFED647AB3F904300A2293FB07
:10354800F2F3594AB2F8FE219B1A1BB208EE103A60
:10355800B8EEC88A28EE278AB0EE480A03F086FC3F
:10356800F0EE408AB0EE480A03F01FFCB5F90230CD
:1035780006EE903AB5F90030F8EEE66A07EE903AB2
:1035880020EE667AF8EEE77AA7EEA87A67EE807AF8
:10359800BDEEC77AE6EEA87A17EE103AFDEEE77AA6
:1035A8002B8017EE903A6B8094F85732002B69D035
:1035B800002E67D107EE903A9FED437A384C394D8B
:1035C800F8EEE77A67EE877A17EE900A0FF012FAAC
:1035D80041EC100B41EC180B12F046FAB4F900005C
:1035E8005BEC10AB0FF0F4F9B0EE480AF0EE680AA5
:1035F80006460F4612F08CFAB4F904008DED000B64
:103608000FF0E6F93246804689463B465046594611
:103618000FF044FA42464B46CDE90201DDE90001CC
:103628000FF03CFA02460B46DDE902010FF082F882
:103638000FF0CEFCB0F5FA7FA8BF4FF4FA70A8429D
:10364800B8BF284642464B462080594650460FF0A0
:1036580025FA3246804689463B46DDE900010FF0EF
:103668001DFA02460B46404649460FF065F80FF032
:10367800AFFCB0F5FA7FA8BF4FF4FA70A842B8BF04
:103688002846A080114B1A78570725D5104B1A6881
:103698009B88138555E000BF141D00200E1E0020D6
:1036A800FC2000200CFEFFFF880A0020D821002003
:1036B800820C0020E821002019210020F824002095
:1036C800701D00200421002035FA8E3C8A2F00202E
:1036D800B8240020F61D00205C490968CE075CBFAD
:1036E80042F001021A705A4A127815075EBF1A781A
:1036F80022F001021A70574AB2F80C11564A19B151
:10370800564909688C0706D45549098819B9554896
:103718000088642806D9022111701A7822F0010263
:103728001A7005E01B78D80756BF02231170137072
:1037380009F03CF84C4B1B68C01A002801DB07F065
:1037480093FF4A4B9B68002B7AD0494809B0BDECDF
:10375800028BBDE8F04F1847BBF1000F02D07E2B5B
:103768003FF445A994F80531972B06D1394B4FF40E
:10377800C872A3F80C21FFF73CB9A72B06D1344A2D
:10378800137843F004031370FFF733B90022BB2BFF
:10379800079201D1022303E0B72B04D14FF6FE7341
:1037A800ADF81E301FE0BE2B01D1022304E0BD2B73
:1037B8007FF41FA94FF6FE73ADF81C3013E001200B
:1037C80002E0022000E003205FFA80FA0AF1FF33EA
:1037D80087F8B43403F0ACFB03F044FC504608F01F
:1037E80085FFFFF706B9BDF81C20B7F8F031134480
:1037F800A7F8F031BDF81E20B7F8F2311344A7F846
:10380800F23103F0C1FD002384F80631FFF7F1B867
:103818003B889B063FF512AD202003F03FFB154B7C
:1038280009F5AC701A685B68C9F8582109F5AE71DA
:103838000125C9F85C3106F071F989F85051FDE4A9
:1038480009B0BDEC028BBDE8F08F00BF741D0020ED
:10385800B4150020880A0020681D0020E41D0020FF
:10386800802F0020E21D00206C1D00204C2F00201E
:10387800A4150020BC1500202DE9F04FAF4CB04F27
:103888002368B04E9D6A2DED048B9BB008F08EFF27
:103898006368C01A388008F089FF33786060012BAC
:1038A80001BFA94B3A881A80A84A059604BF128816
:1038B8005A80A74B13A8DB6898479DF84C3023B172
:1038C800237A002B00F045830AE008F06FFFA14A35
:1038D80063681268EB1A184450329042E9D3EFE754
:1038E8000DF020FE08B90DF033FE9B4D95F85632C9
:1038F8001BB99A4B1B88002B4ED0994A61891268D4
:10390800B1FBF2F1974A8D4B1278481C80B2A08126
:103918001AB3B3F80EB00023884F934A07F1180C76
:1039280007F1100932F813803CF813E039F8132036
:103938002CF81380CEEB080E12FB0BF20FFA80FA6C
:1039480092FBFAF2964429F813E00133042BE3D1F1
:10395800844BF98100221A7002E0DA89013ADA818F
:10396800E089764A03B2002B4FF0000313DDB2F969
:103978000C707E4931F81320083112FB00F231F83F
:10398800131092FBF7F28A1A774921F813200133B2
:10399800042BEED100E0D381754BDFF8BC811B7896
:1039A800B3B1744BB3F90620B8F852329A420FDC1F
:1039B80098F80530012B01D0192B02D198F89E22D6
:1039C80032B90E2B04D0082B1EBF674B00229A80F9
:1039D80098F810729FB3614B1B889B072FD0664BDA
:1039E800DFED667A93ED080AB4EEE70AF1EE10FA15
:1039F80020D912F0A9F9D4ED087A20EE270A12F09E
:103A08001BF9B0F5617FA8BF4FF4617007EE900A0B
:103A1800B8EEE70ADFED5A7A80EE270A03F0C5F917
:103A280007EE907AF8EEE77A27EE800A12F004F9AA
:103A380080B200E000204C4AD3881844D080514B13
:103A48001B689F0640F1D280444B1B8803F030036B
:103A5800002B00F0CB804C4B1B78DE0740F1C68072
:103A68004A4BDFED4B7AB3F90430DFF830910A2284
:103A780093FBF2F308EE103AB8EEC88A28EE278ACC
:103A8800B0EE480A03F091F9F0EE408AB0EE480A29
:103A980003F0ECF93F4B404A1B68DE78B0EE409AE1
:103AA800B2EE048A002E7DD0DFF8F4B0B2F902003D
:103AB800BBF8027006923BB2C01A06F01DF87342BA
:103AC8009842069A03DBB042A8BF304600E0184689
:103AD8003844BBF8007006931FFA80FAB2F9000068
:103AE800ABF802A03AB2801A06F006F8069B984294
:103AF80003DBB0420346A8BF33461F44BFB2ABF84E
:103B080000703FB207EE107A0FFA8AFAB8EEC70AC9
:103B180007EE90AA28EEC07AF8EEE77A20EE090AB6
:103B2800A7EE897AA7EEA80A87EE087ABDEEC77ACB
:103B380017EE103AA9F8003050E000BF880C0020BA
:103B4800822F00209A1800209C180020E21D0020D7
:103B58004C2F0020A41D0020F8240020701D0020F8
:103B68005C2000206C0C0020FC200020980C002019
:103B780002000020141D0020682300208FC2753C1D
:103B8800EFB6B044E41D0020B41500200421002045
:103B980035FA8E3CDC0B0020680C0020842F0020B6
:103BA800640C0020B2F9023007EE103AB2F9003086
:103BB80000EE103AB8EEC00AB8EEC77A68EEC07ADE
:103BC80020EE090AE7EE097AA7EE280AC7EE887AF6
:103BD800FDEEE77A17EE903AA9F8003080EE080A71
:103BE800FDEEC07A17EE903AA9F802309B4B187890
:103BF800002840F0AC819A4B1A6812F4002F9946BD
:103C080000F0A581974F3B78033B052B13D898F814
:103C180061351BB9606A03689B689847A36A94F882
:103C28002C201344B3F5807FA8BF4FF480738342E0
:103C3800D4BFA362A0623B78023B092B00F28781C4
:103C4800DFE813F00A0012004300630077008E00DB
:103C58009F0044015F016A010023A3622363824B32
:103C68001B686363032371E17F4B1A68636B6433DA
:103C78009A4240F26C8140200DF024FB002840F06D
:103C880066814FF04009794D236BDFF8E481E85CE9
:103C980078B10DF065FBD8F82830013BC8F828301A
:103CA800D8F83030B9F1010903F10103C8F8303010
:103CB800E9D1226B6E4BAA5C002A40F048811A6356
:103CC8004FF0FF325A63042340E125230093694BE8
:103CD800019303F10C0202924920A3F10A02502138
:103CE800023305F013F9002840F03181D9F800308B
:103CF8004FF0FF3213F080030FBF2363206362632A
:103D0800052304BF6263072320E15B4A02230021E5
:103D1800009301910291482002F1080305F0F6F89A
:103D2800002840F014814FF0FF33636320630623BB
:103D38000CE1524B019303F10C0207250292009506
:103D4800A3F1080247200021043305F0DFF800281A
:103D580040F0FD804FF0FF33206363633D70F6E071
:103D6800474A05230021009301910291532002F153
:103D7800080305F0CBF8002840F0E9802063082309
:103D8800E4E040200DF09EFA002840F0E080236B2C
:103D98000C2B00F22C86DFE803F0070B0E12182913
:103DA8002D313539444E510036480DF091FB50E025
:103DB8003548364917E036483649374A47E03748E4
:103DC80098F85F1598F8602541E095F8B4243448D0
:103DD80084235343EA180C2192F8082401FB023388
:103DE8001D4495F80A140DF073FB32E02D48B8F81D
:103DF800D010F8E72C48B8F8D210F4E72B4B2C4831
:103E08001969F0E72B4B2C481988ECE7A36BD80409
:103E180003D52A4898F81212E5E7154B0B221A63C6
:103E280017E0274898F8161298F8172298F81532CC
:103E38000DF04EFB0DE02348A18FD4E7D9F80030F0
:103E4800190506D52048B8F81C12B8F91A220DF041
:103E58003FFB236B0133236379E000BF8D2F0020E4
:103E6800101D0020B4090020401D002034870108DF
:103E7800880C00209E87010850890108688901087C
:103E8800B489010878A9010892A9010879A801084C
:103E9800A7A9010864A8010870A80108BBA901081E
:103EA800CCA90108D6A90108E5A901084C2F0020D2
:103EB800F4A901080400002004AA01080EAA0108B8
:103EC8001BAA010834AA01083FAA0108B74B1B68BE
:103ED8009A0113D5B4F84030B54D7BB96B6C139388
:103EE800B44B0E201B68149313A904F039FD4FF44A
:103EF8008053EB870A233B7004F08CFD04F012FD1D
:103F080025E094F84830002BF6D0A84B1B689B019D
:103F1800F2D409233B70F1E7A74B1A68636BC833E7
:103F28009A4203D998F861557DB904E00DF0E8F993
:103F38000028F7D10BE0606A08F0B8F994F8493026
:103F48006562022B01D10CF087FD01233B70002331
:103F580023729A4B0BAD5B6828469847002800F0FF
:103F6800F580059B187800230328954F02BF9549D3
:103F780057F8236021F813609A0035F91310B950E7
:103F88000133032BF0D18E4894F84A20014604F0FF
:103F980069FA94ED138AB5EE408AF1EE10FA13D15E
:103FA800894BDFF84CA21A889846002A00F0AD80A9
:103FB800D4F8C0301B78AAF1480908EE103AAAF1E3
:103FC8003C054FF0000B5CE0794B93F85050A5B9D5
:103FD8007E4B1A68984682B1DFF8D491D8F8001061
:103FE80009F154002844B0EE480A243502F05FFC79
:103FF8006C2DF1D1012389F8503094F85030002B02
:10400800CED0002557F8253007EE903A704B242083
:1040180000FB0530B8EEE70A02F020FC11F00CFEB8
:1040280047F825000135032DECD1B9E7D5ED006A35
:1040380007EE103A37EEE66AB8EEC77A86EE077AE8
:1040480036EE877AD5ED026A85ED017A77EEC77A82
:1040580085ED007AE6EE276AF0EE667AC5ED036A2A
:10406800C5ED026A00230129BB504AF802302AD064
:104078000BF1010BBBF1030F09F1040905F114055C
:1040880050D0B8F8001057F82B00B1F57A7F02BF6E
:104098000023C9F800302B61D9F800300344C9F86F
:1040A80000302B6907EE900A0133012B4FEA8B028F
:1040B800F8EEE77A2B61B9D10023C5ED017AC5ED99
:1040C800007AAB60CEE72B690692012BC3BF03F1E0
:1040D800FF3300EE103AD5ED037A9FED3E0AC4BFD8
:1040E800B8EEC00A87EE800A11F08EFE069A18EE26
:1040F800103A63B1F8EEC87AB4EEE70AF1EE10FAB6
:1041080005DD4FF47A73A8F80030002314E0D9F8DD
:1041180000304FF47A7103F5FA7393FBF1F34AF820
:104128000230A5E7B8F80000012801D108F0A8FA84
:10413800B8F80030013BE6E757F823205AF8231077
:10414800521A47F823200133032BF5D194F818317C
:10415800174D23B1013B85F8183100F053BC1E4BB5
:1041680093F8E82103F51071013A85F81821B3F89E
:104178003222009119490F6819490868194903F54D
:10418800F8730968B847184BDB780893174B1B7806
:10419800002B3CD0D5F81C216423534343F30F3341
:1041A800272B27DD642BA8BF642324E0741D00207F
:1041B800880C0020702F0020401D00204C2F00206C
:1041C8000C2100209C180020802F0020A41D002016
:1041D800DC0C002000000000F8240020BC030020B4
:1041E800700C00207C1F0020441D00201D21002091
:1041F800940D00202823AD4A918811FB03F39BB24C
:104208009380059A1278062A04BFA94A1380A94BFD
:104218001B68DF0007D4A84BA44A93F800B0BBF191
:10422800030F71D889E0A54BD4F820211968907E36
:104238004B880D88577E5D1BA14B1B6803F4805E7D
:10424800A04BADB200EB8000D3F800800FFA85FBDD
:1042580000F10A0900269C4B4FEA460C33F8163049
:10426800BEF1000F0AD0B8F80210B8F80020521AB0
:104278005A44022192FBF1F292B200E02A467FB33F
:104288001BB2B3F5FA7F9149A8BF4FF4FA738B427A
:10429800B8BF0B4683EAE371A1EBE371494523DD1F
:1042A800002BCCBF1B1A1B189BB20FFA83FA8AEAA1
:1042B800EA71A1EBEA7179434FF0640A13FB02F348
:1042C80091FBFAF14FF4FA7A93FBFAF31BB2090364
:1042D80091FBFAF14B43C3F30F33C1F5805106E06C
:1042E8004FF480513B4602E04FF4805100236F4A5F
:1042F8003CF902A001FB0AF103EB21312CF8021072
:10430800002E88D10126A6E7714BD3F824315D88A9
:10431800B5F5FA7F11D26C4BB2F90460B3F9040019
:1043280080EAE077A7EBE0776942CB1B9E4203DB8C
:10433800EB19B342A8BF33469380664B1B689D793F
:10434800E5B15F4909688E0715D5634909780129E0
:1043580011D9DB78614E59433688CB1A9E4288B210
:1043680003DBB1420B46A8BF334601B209031BB2B7
:1043780091FBF3F301E04FF48053049353880593C2
:10438800574BD4F824C15748B2F800E0B2F904807A
:1043980093F8009000210B460A465A4548D29CF9EA
:1043A800004090ED016A644208FB04F407EE904A6D
:1043B800BDF9144006EE904A0FFA8EF4B8EEE77A8B
:1043C80007EE904AF8EEE77AF8EEE66A67EE867A44
:1043D80090ED026AE6EE867A0DAED0ED036AE7EE5E
:1043E800267AFDEEE77ACDED067ABDF818401DB1C4
:1043F800049F24B27C43241326F812400DAC0FFA14
:1044080083FA34F8124026B2564505DC0FFA81FAD1
:104418005645B8BF214600E02346B9F1050F04D13F
:10442800042A9CBF224E26F8124001321030B4E70D
:10443800234F224A591A3B6813F4805F89B2244BF0
:1044480056D02948224E007840075EBFD3F8200195
:10445800008AA3F8E8012548C488D3F82001B0F8F9
:10446800108018480068C5880FFA84FCC5EB080E50
:10447800F44503DC12680588128805E04544AC451C
:1044880005DB126855884288A6F8E84135E0B6F998
:10449800E8417445CDBF1268058812685588CDBFBC
:1044A800428812882C46144627E000BF4421002089
:1044B8009C180020741D0020EB210020E022002021
:1044C800101D0020DC220020FC2000200CFEFFFF35
:1044D800880C00207C1800207E010020CC180020C9
:1044E8009A180020B00D00208A2F0020141D0020EB
:1044F8007648C48810680288458875481FFA85FE82
:1045080096B2C6EB0E020DB212B2954227DD4FF0FD
:10451800010E80F800E010034FF0000E90FBF5F557
:10452800C3F81C51DE450BD20DA830F91EC005FB9F
:104538000CFCCCF30F3C20F81EC00EF1010EF1E785
:10454800022092FBF0F0321862480078062892B2F6
:1045580010D1BBF1020F0DD85F4841800AE000225C
:104568000221027095FBF1F57219C5EB0E0592B2A6
:10457800A9B200E01146B3F9E801D3F82081574BFE
:104588003F68D3F800E0564B04901D68554807F083
:1045980010030993544B1B7803F00403DBB2059313
:1045A800524B1B6803F000630693514BB3F9063076
:1045B800079307F4805900265E4555D20DAB33F8B2
:1045C80016C023B207EE903A4A4B03EB061393ED5D
:1045D800007AF8EEE77A13B267EE877AFDEEE77AAB
:1045E80017EE90AA9A4503DB0BB25345A8BF534672
:1045F8006344089F9BB220F8023F1BB217B1B5F87D
:1046080004C015E0B9F1000F10D0B8F810C0BEF81A
:1046180006A0049FCAEB0C0C674504DCB5F800C083
:10462800BEF800A006E0BEF802C001E0B5F800C080
:10463800B5F802A0634503DB5345A8BF53469C4623
:10464800099BA0F800C06BB1059B5BB1B9F1000FE5
:1046580008D1069B33B9B8F81230079F9F42BCBFF8
:10466800AB8803800136A7E71F4B1A7802F00402D3
:1046780002F0FF034AB12049204F91F8EA31013B8B
:10468800DBB2182B00F2438109E05B45F3D21C4AE8
:1046980032F813101B4A22F813100133F5E70122F0
:1046A8009A40194B1340002B00F03181174B1048EA
:1046B8001B8813F4807F2BD0044B1A88ADF84C204C
:1046C8005A88ADF84E209B8838E000BFFC200020B7
:1046D8001D2100209A1800209C180020DC220020B0
:1046E800E0220020F22100208A2F0020741D0020E3
:1046F800141D0020B00D0020880C0020580900204F
:10470800801F0020F421002099209801701D0020AE
:10471800BF4B1A88ADF84C205A88ADF84E20BD4AD8
:104728009B881268ADF85030D20409D5D1F8202101
:10473800B0F90640128A944202DA5B42ADF8503072
:10474800B54DB5F902304FF47A7203F5E16353437E
:104758004FF4616493FBF4F3A3F5FA73ADF8643096
:10476800B5F9003003F5E1635A43AC4B92FBF4F220
:104778001B88A3F2DC53A2F5FA72ADF85230D1F8D7
:104788002031ADF866201B8A0288D21AADF8542071
:104798004288D21AADF856208288D21AADF858202D
:1047A800C288D21AADF85A200289D21AADF85C2014
:1047B8004289D21AADF85E208289D21AADF86020FB
:1047C800C289D31AADF862300023002227F81320DB
:1047D8000133082BF9D1924A924B12680492924AFB
:1047E8001B78126891490592914D072202FB031B21
:1047F800594572D00B7833B103F115020123934068
:10480800049A134065D011F806CC059B11F805AC45
:1048180011F8034C11F8018CCCEBCC0E03EB4E0EC7
:104828006420BEF90020BEF902309B1A9BB211F930
:10483800022C4FEA53095A434FEA4A0692FBF0F218
:104848001AA8C9EB020292B2064414B936F81C0C35
:104858000CE0B5F9000036F91C6CB04208DA0444E3
:10486800844203DBA6423046A8BF2046288008E0E1
:1048780007DD041BB44203DB8442A8BF0446264676
:104888002E80DEF80A4011F9046C012000FA0AF0C3
:104898002042288812B216FB00F014BF4FF0FF34F4
:1048A8000124642690FBF6F090420ADB4FFA88F266
:1048B8005A4392FBF6F2C9EB020212B28242A8BF37
:1048C80002465C4B33F81C9002FB049423F81C400E
:1048D80000E02B80023507318AE7534B564ED3F858
:1048E800008000250E2202FB058236F8023F92F96D
:1048F8000640E8B214FB03F3642493FBF4F4348019
:104908000AF004FD01352044082D3080EAD1414BDE
:10491800454D1B6813F0200F32D000200AF0F6FC3A
:104928003880064601200AF0F1FC3D4B414C1B68DB
:1049380078801B0624D5414B374AD3F80C321B78B4
:10494800012B20D12968138891F914E0B2F90220CB
:104958001EFB03FE91F906304FF0320C5B429EFBC2
:10496800FCFE1FFA8EFE53436FF0310293FBF2F206
:104978007244B11893FBFCF373442180184460809F
:104988002D68002318E0D5F800E053889EF906103A
:1049980011FB03F1322391FBF3F13144218011889B
:1049A8009EF9142012FB01F292FBF3F21044E6E7A1
:1049B8000133082B3A5311D00E2101FB035137F96B
:1049C8001300B1F90020B1F9021090424FEA4304F4
:1049D800EEDB0AB28242A8BF0246E9E70CF0A2FD6C
:1049E80008B10CF0B5FD154B01221A720AE00CF063
:1049F80087FC00283FF4ABAA4FF48053E3870A23CF
:104A0800FFF7A4BA1BB0BDEC048BBDE8F08F00BF64
:104A180044210020101D002004210020F421002042
:104A2800741D0020E4220020D01F0020EB2200206B
:104A3800740E00205809002056090020880C002018
:104A4800026BC168034610B5406942B11A6C8C1AF2
:104A5800013A005D08BF0A46C0B21A6410BD1A6A5E
:104A6800805C01328A4228BF0022C0B21A6210BD9F
:104A7800436B13B190F844007047836A406A1B1A6D
:104A8800584258417047426A816A03698A4238BF6E
:104A9800D218521A416B21B149680A44591E8A42F8
:104AA80003D2013B981AC0B2704700207047036BCD
:104AB80013B15B68016C01E0C369016A8B423CBFBA
:104AC800C2689B18581AC0B27047836A8169426BE2
:104AD8001944D160416A99429DBF0169CB1A53605C
:104AE800CB1A96BF0023536083624FF0000380F80F
:104AF8004430136888BF816243F001031360704734
:104B0800436A8269D154436A02690133934228BFD8
:104B180000234362436B1BB11B68DB0705D4D4E752
:104B2800026D136843F080031360704710F80A3C65
:104B38000133DBB20A2B84BF10F8131C044A00F8B7
:104B48000A3C82BF002322F8113000F80A3C704763
:104B5800641C0020334A136C90681944081A40F604
:104B68008C23984270B513469160D06051603BD950
:104B7800127893F945108A4210460BD1111F082963
:104B880008D893F84610182901D8013103E083F8B2
:104B9800442002E0002183F8461093F9444021495B
:104BA800A24219D191F84740B4B10C310024944283
:104BB80006DA1D4D51F8046F25F814600134F6E744
:104BC8000C2805D01849002421F810400130F7E7D7
:104BD800164801780131017083F84520002201212F
:104BE8001A7083F8471070BD92F84710C9B1A0F247
:104BF800EF2440F2DA518C4208D811780B2905D8F5
:104C08000B1D0131117042F8230070BD002283F89A
:104C18004720074B03F13002002143F8041F934259
:104C2800FAD170BD58040020641C0020962300208F
:104C380064040020024A136C01331944116470475C
:104C480058040020A1F57A7107EE901A9FED0A7AB0
:104C58000A4BF8EEE77A53F82030C7EE877A82B02D
:104C68001A68FCEEE77ACDED017ABDF804303C33E2
:104C7800136002B0704700BFCA5485400C22002060
:104C8800024B53F820301B68196070470C22002033
:104C9800034B53F820301B6801EB41011960704742
:104CA8000C220020024B53F820301B681960704713
:104CB8000C220020064B53F820301A681B89A1F5F6
:104CC8007A7159434FF47A7391FBF3F1116070478D
:104CD8000C220020F0B5046D8668236823F00103D8
:104CE80023608379054613F0020F40790CBF4FF01B
:104CF800000E4FF4005E13F0040F14BF4FF48067EA
:104D0800002710F0010F14BF042100218307206839
:104D180020F001002060626822F440524EEA02024C
:104D28006260226822F4B05323F00C0348BF41F0BC
:104D380008013B430B432360A36895B023F44073F9
:104D4800A360684603F020FA284B9C4201D10C9BD3
:104D58000EE0274B9C4201D10D9B09E0254B9C425C
:104D680001D10E9B04E0244B9C420CBF0F9B109B6F
:104D78002268A879170448BF5B00B3FBF6F206FB6C
:104D88001233B3EB560F236828BF01321E0441BF0C
:104D98004FF6F073C2F34201134041EA03026B7904
:104DA80092B213F0020FA28100F0010114BF4FF478
:104DB80000320022DC0748BF42F480322B6D11B16B
:104DC80059680A4302E0596821EA02025A609A685F
:104DD80001074CBF42F0080222F008029A601A68E4
:104DE80042F001021A6015B0F0BD00BF0038014062
:104DF8000044004000480040004C0040417169E711
:104E0800816067E7026D036B70B50446D5699BB98D
:104E1800A90611D5C36A1BB1908C80B298470BE0E4
:104E2800E169928C40694E1CD2B2E6614254E16954
:104E3800E268914228BFE361616BA1B92A0612D5E5
:104E4800636AA26A9A42236D09D0501CA669A062BF
:104E5800B25C1A852369984205D3A16203E01A68F7
:104E680022F080021A602B0742BF236D08221A62C3
:104E780070BD0D4B0D484FF400525A600C4A116832
:104E88004FF6FE730B401360426B11684FF6FE73CA
:104E98000B401360426A836A9A4200D015E60123E8
:104EA80080F84430704700BF000002402C1B0020EF
:104EB800440002402DE9F0471E46A84B8CB09842AA
:104EC800894690469DF8505040F08980A44BA54AE9
:104ED8001A60A54A5A6102F580729A614FF480728D
:104EE800DA601A61A14A5A63A2F54842203ADA64A4
:104EF80004329A64C3F8088018659D4B9A6942F495
:104F080080429A615A6942F001025A6102238DF87F
:104F18000830032315F0010A8DF809304FF000031B
:104F28008DF80A3014BF022301232C078DF80B30AB
:104F380017D5904C102701978AF001038DF80A3095
:104F4800236A23F470232362236A43F4E023236251
:104F5800204601A903F0DCF8BAF1000F23D1A761BC
:104F680021E0B0070ED50CA9102341F82C3D81484B
:104F7800036A23F470230362036A43F4E0230362A1
:104F880003F0C6F8F1070ED50CA9202341F82C3DF3
:104F98007848036A23F470030362036A43F4E00366
:104FA800036203F0B5F801240E23002768468DF844
:104FB80000308DF801408DF803408DF802700BF039
:104FC8005BFB252368468DF801408DF803408DF87A
:104FD80000308DF80270624C0BF04EFB0DE1664B11
:104FE800984276D1654B5F4A1A604FF48072DA6056
:104FF8001A61634A5A6102F580729A615C4AC3F881
:1050080008801865D36943F40033D36102238DF80F
:105018000830032315F0010A8DF809304FF000031A
:105028008DF80A3014BF022301232A078DF80B30AC
:1050380019D54FF090444FF4804701978AF0010347
:105048008DF80A30636A23F070636362636A43F021
:10505800E0636362204601A903F05AF8BAF1000F31
:1050680027D1A76125E0B30710D50CA94FF48043D9
:1050780041F82C3D4FF09040436A23F0706343623F
:10508800436A43F0E063436203F042F8F70710D540
:105098000CA94FF4004341F82C3D4FF09040436A6F
:1050A80023F070434362436A43F0E043436203F0F2
:1050B8002FF826238DF800300022012368468DF84A
:1050C80001308DF802208DF803302C4C0BF0D4FA07
:1050D80093E02C4B984240F011812B4B214A1A60E7
:1050E8004FF48072DA601A61284A5A6102F58072B8
:1050F8009A611F4AC3F808801865D36943F480236E
:10510800D36102238DF80830032315F0010A8DF8C6
:1051180009304FF000038DF80A3014BF0223012331
:105128002C078DF80B3035D5194C4FF48067019753
:105138008AF001038DF80A30636A23F470636362AE
:10514800636A43F4E0636362204601A902F0E0FF6A
:10515800BAF1000F42D1A76140E000BF003801401A
:105168002C1B0020DC8901089C0E00204400024012
:10517800001002400008004800440040D81A0020EF
:105188009C10002000480040841A00209C12002037
:1051980000040048B0070FD50CA94FF4806341F80C
:1051A8002C3D5848436A23F470634362436A43F4CE
:1051B800E063436202F0ACFFF1070FD50CA94FF48E
:1051C800006341F82C3D4F48436A23F4704343621F
:1051D800436A43F4E043436202F09AFF27238DF8C1
:1051E80000300022012368468DF801308DF8022036
:1051F8008DF803300BF040FA434CC4F82C9000278C
:10520800012384F844302762E761A7626762667108
:10521800C4F80880A5712046FFF75CFDF20734D575
:10522800236B002B2AD001A802F0CEFEE36C019379
:105238004FF480530A9380230693E368ADF8103047
:1052480020230993206B636902930B9705970797AF
:105258000897039702F0E3FE01A9206B02F0C1FE54
:10526800236B216D1A6842F001021A608A6842F0C5
:1052780040028A605B689BB2236406E0236D2022AB
:105288001A621A6842F020021A60B3072FD5636BBE
:1052980043B301A802F098FEA36C01934FF4805326
:1052A8000A93802306932369ADF810300025102354
:1052B800606B03930B95059507950895099502F082
:1052C800AEFE606B01A902F08CFE636B1A6842F0B7
:1052D80002021A60226D5D605D60936843F080038E
:1052E800936004E0226D136843F080031360226D1D
:1052F800136843F001031360204600E000200CB05F
:10530800BDE8F08700040048841A00203D4B1B7854
:10531800012B30B514BF00240324B1B9036A23F06C
:10532800010303628169036A21F0F30123F00A0390
:1053380041F0010142F001021A4341EA041181617E
:105348000262836923F00C031BE004291DD1016A62
:105358004FF6EF730B4003628169056A120121F46D
:1053680073414FF65F7342F0100241F480712B4095
:1053780092B2134341EA043181610362836923F4E1
:10538800406383618369836130BD0829016A1AD14A
:105398004FF6FF630B400362C169036A9BB289B28F
:1053A80023F4206343F4807321F0F30143EA0222DB
:1053B80041F0010192B241EA0411C1610262C2697D
:1053C8004FF6F37319E04EF6FF730B400362C3699F
:1053D800056A40F6FF41194045F6FF732B4043F438
:1053E800805343EA023241F4807192B241EA0431B7
:1053F800C1610262C2694FF2FF331340C361C369DE
:10540800C36130BD5404002038B510F80E2C50F894
:10541800043C044652B9012200F80E2C20F80C1C5A
:10542800997A18680222BDE838406FE730F80C2CEA
:1054380020F80A1C891A89B220F8081C074A10F8B3
:105448000F0C002522F8101004F80E5C1868997AE1
:105458002A46FFF75BFF04F8065C38BD641C002091
:10546800044B53F820301BB107289CBF1B681960F8
:10547800704700BF8005002073B506460D4600241E
:1054880001232A88A34013421AD0AA78009302F075
:1054980003038DF80430EB78022B03D0032B0CBFE9
:1054A800032301238DF805303046C2F30113694602
:1054B800C2F381028DF806308DF8072002F028FE2D
:1054C8000134102CDCD102B070BD2DE9F04F754EBF
:1054D80096F8005607460C4687B011469A4600686B
:1054E8006B1C914622464FF0020B86F8003604F0FA
:1054F80091FF3B897868ADF8043001A98DF806B0B2
:105508008DF807B0FFF7B8FF0023ADF80A30ADF803
:105518001230ADF8163070230193BA7A3C68CDF892
:105528000CA0012306F204682D01ADF808304FF4F1
:105538008073A844ADF810B0ADF814300C2A7ED8AA
:10554800DFE802F0077D7D7D0F7D7D7D387D7D7DE7
:105558005E00204601A902F0E5FCA36943F00803B8
:1055680026E0236A504823F010032362236A616807
:10557800A26922F0807222F4E642844242F4E042B8
:1055880006D000F50060844202D043F0300307E003
:1055980023F0E00321F4406143F0300341F48061DB
:1055A8006160A261C4F838A02362A36943F4006370
:1055B800A36144E0236A3C4823F480732362226A8F
:1055C8006168E369844223F0730343F0700306D0F3
:1055D80000F50060844202D042F4407207E022F4F1
:1055E800606221F4405142F4407241F4805161609C
:1055F800E361C4F83CA02262E36943F008031DE0BC
:10560800236A294823F480532362226A6168E36984
:10561800844223F4E64343F4E04342F4405203D087
:1056280000F50060844201D141F480416160E3618A
:10563800C4F840A02262E36943F40063E3613A7B63
:105648003B681AB15A6C42F400425A641A8892B202
:1056580042F001021A80BA7A0C2A19D8DFE802F05F
:10566800071818180B1818180F181818130072199B
:1056780003F134010AE0721903F1380106E07219E6
:1056880003F13C0102E0721903F14001C2F804166B
:1056980035444046A5F80C96C5F8083607B0BDE86D
:1056A800F08F00BF9C0E0020002C0140054B1A68AB
:1056B800054B9A42054B0CBFB3F8C406B3F8C606AF
:1056C80080B27047A4050020005400409C0E0020C2
:1056D800094B0A4A98420BBFB2F8C436B2F8C6362C
:1056E800013301330BBF9BB29BB2A2F8C436A2F8B8
:1056F800C6360020704700BF005400409C0E0020B2
:105708002DE9F04F85B007F0ABFAC64B1F78002F94
:1057180040F08187C44D2B68580540F17C87C34B06
:10572800C34CB3F8DE802378C24E002B00F0118200
:1057380032686368D31A7C2B40F20B82237A62604A
:105748000133237207F12400DFF8E492C0B207F0B6
:105758003BFA09F10C0353F8273007EE903AB64BA1
:105768001B88B8EEE77A07EE903AF8EEE77A013749
:10577800C7EE277A9FEDB17A67EE877AFDEEE77A72
:10578800CDED007ABDF9000007F00CFA032FD9D14E
:10579800302007F019FA002007F004FA07F00CFA95
:1057A80099F8087017F0030724D1D9F8042041F2BA
:1057B80088339A420BD9102007F006FA384607F0CA
:1057C800F1F9212007F000FA384607F0EBF9142028
:1057D80007F0FAF99A4BB3F904000A2390FBF3F0A7
:1057E80007F0E0F91C2007F0EFF9002007F0DAF9DC
:1057F80007F0E2F9237A590740F08781022007F081
:10580800E3F98B4BB3F918000A2390FBF3F007F088
:10581800C9F98C4B0320B3F9067007F0D5F98A4B08
:105828001B785A074FF0050997FBF9F7BFB20BD55C
:105838008648414606F0CCFE20B92B6813F0100FBD
:1058480018BF002738B205E0814B1B68D889B0FB28
:10585800F9F000B207F0A6F92B689B0740F18B809E
:10586800DFF80092678BDFF8008299F80010B8F82B
:1058780000203F016423BFB203FB02124B00B2FBBE
:10588800F3F347EA0327BFB2C3F303231F430620FA
:1058980007F09AF938B207F085F9638B99F8002078
:1058A80001339BB293FBF2F102FB1133E16963838D
:1058B8008B7B012B05D1392007F086F9B8F9000058
:1058C80021E0B8F800706E237B43152793FBF7F7A8
:1058D800CB7BBFB20BB197FBF2F73A2007F074F914
:1058E8004FF06409B7FBF9F80FFA88F007F05AF996
:1058F80009FB18773B2007F067F9B8B2471D0A2063
:1059080097FBF0F000B207F04DF9282007F05CF99A
:10591800236A474F0A2093FBF0F000B207F042F9E0
:10592800042007F051F94A4B786A1B68DA894FF668
:10593800FF739842A8BF1846C2B10028ACBF131A1B
:10594800134607EE903A9FED437AF8EEE77A67EE52
:10595800877A07EE102AB8EEC77AC7EE877AFDEE87
:10596800E77A17EE900A6428A8BF642020EAE0705E
:1059780000B207F017F9384B1B689F0640F1BA8050
:1059880094F82830DFF8A88098071DD5112007F073
:105998001BF9B8F82A00314B4FF4F367784390FBB2
:1059A800F3F000B207F0FEF8192007F00DF9B8F887
:1059B8002A004743642097FBF0F797FBF0F300FBBE
:1059C800137000B207F0EEF894F82830A78D13F0A2
:1059D800020F08BF0027012007F0F6F838B207F0D9
:1059E800E1F8092007F0F0F8002007F0DBF81C4B7D
:1059F80094F82E701A88B2F5967F0AD90C4B1B7A48
:105A080003F00F03072B04D842F20F77974228BF01
:105A18001746052007F0D8F8E3695B7B43BB38B22B
:105A280043E000BF8D2F0020101D0020F824002027
:105A38008C150020401D00200400002000007A443E
:105A480004210020FC2000208A2F00203827002075
:105A58007C1800200000C842E41D0020A086010038
:105A6800780100207E010020CC1800206666E63F01
:105A7800A7F1200307EE903A1FED047AF8EEE77AD3
:105A8800F6EE006AC7EE877ABEEE007AF5EEC07AC7
:105A9800F1EE10FA58BFB0EE667A77EE877AFDEE2F
:105AA800E77ACDED007ABDF9000007F07BF894F8AD
:105AB8002820C24B910703D493F82F20012A04D140
:105AC800012384F82F30BE481BE0DB69DFEDBD6A97
